:100000000C942A000C94E4000C940D010C9436011D
:100010000C9447000C9447000C9447000C94470044
:100020000C9447000C9447000C9447000C94470034
:100030000C9447000C9447000C9447000C94470024
:100040000C949A000C9447000C9447000C944700C1
:100050000C94470011241FBECFE5D8E0DEBFCDBF12
:1000600010E0A0E6B0E0E4EEF2E002C005900D92F0
:10007000A036B107D9F720E0A0E6B0E001C01D929C
:10008000AC36B207E1F70E944F000C9470010C945B
:10009000000060916B0082E00E94CE0008950E94F3
:1000A00063010E945D000E945F0149E450E06BE63D
:1000B00070E080E00E947100F8CF87B1806487B95A
:1000C00087B18F7787B987B1806287B986B1887F1A
:1000D00086B986B1876086B986B1806886B980E0C6
:1000E00008959091600091111FC061157105F1F0A4
:1000F00041155105E9F091E0909360007093640020
:1001000060936300509362004093610097B1907ECA
:1001100097B997B1892B87B986B1806486B986B1C2
:10012000886086B980E0089584E0089582E00895AB
:1001300082E008951F920F920FB60F9211242F9311
:100140003F934F935F936F937F938F939F93AF935F
:10015000BF93EF93FF93E0916300F091640085B14A
:1001600090E09183808310926000E0916100F091B3
:100170006200099586B1877F86B9FF91EF91BF91A3
:10018000AF919F918F917F916F915F914F913F912F
:100190002F910F900FBE0F901F901895813049F04E
:1001A00028F0823049F0833051F00CC06BBB80E006
:1001B000089568BB80E0089565BB80E0089562BB48
:1001C00080E0089583E008951F920F920FB60F927A
:1001D00011242F933F934F935F936F937F938F934C
:1001E0009F93AF93BF93EF93FF93E0916900F091DA
:1001F0006A00309709F00995FF91EF91BF91AF9197
:100200009F918F917F916F915F914F913F912F912E
:100210000F900FBE0F901F9018951F920F920FB660
:100220000F9211242F933F934F935F936F937F937C
:100230008F939F93AF93BF93EF93FF93E0916700EA
:10024000F0916800309709F00995FF91EF91BF9107
:10025000AF919F918F917F916F915F914F913F915E
:100260002F910F900FBE0F901F9018951F920F9215
:100270000FB60F9211242F933F934F935F936F9379
:100280007F938F939F93AF93BF93EF93FF93E091EF
:100290006500F0916600309709F00995FF91EF91A4
:1002A000BF91AF919F918F917F916F915F914F918E
:1002B0003F912F910F900FBE0F901F9018958FB701
:1002C00080688FBF08951ABA8FEF87BB84BB81BB4C
:1002D0001BBA84E088BB15BA8DE082BB80E008952C
:0402E000F894FFCFC0
:00000001FF
