:100000000C942A000C9447000C9447000C94470071
:100010000C9447000C9447000C9447000C94470044
:100020000C9447000C9447000C9447000C94470034
:100030000C9447000C9447000C9447000C94470024
:100040000C9447000C9447000C9447000C94470014
:100050000C94470011241FBECFE5D8E0DEBFCDBF12
:1000600010E0A0E6B0E0EEE7F7E002C005900D92E8
:10007000A038B107D9F720E0A0E8B0E001C01D9298
:10008000A138B207E1F70E94DF020C94BD030C9483
:100090000000CF92DF92EF92FF920F931F93CF93C6
:1000A000DF931F92CDB7DEB700E04EC0C02ED12C3B
:1000B000D601A458BF4FF601E858FF4F40E06C91BD
:1000C00080810E94EA0210E031C0E12EF12CD701BC
:1000D000AC58BF4FF701E059FF4FAE014F5F5F4F84
:1000E0006C9180810E946D03898181111EC0C701BE
:1000F000880F991F880F991F805A9F4FFC01EC0DA4
:10010000FD1D10810DC0AE014F5F5F4FF701EC5830
:10011000FF4F6081F701E059FF4F80810E946D031E
:100120009981992381F3812F13C01F5F143068F2E6
:10013000D601A458BF4FF601E858FF4F41E06C913B
:1001400080810E94EA020F5F043008F4AFCF8FEF86
:100150000F90DF91CF911F910F91FF90EF90DF9063
:10016000CF9008958FE097E20197F1F700C000006B
:1001700040E060E080E00E94EA0240E061E080E070
:100180000E94EA0240E062E080E00E94EA0240E071
:1001900067E081E00E94EA0240E066E081E00E94C0
:1001A000EA0241E065E081E00E94EA0241E064E0A9
:1001B00081E00E94EA0241E063E081E00E94EA02FD
:1001C00040E062E081E00E94EA0240E061E081E01C
:1001D0000E94EA0240E060E081E00E94EA0241E021
:1001E00062E080E00E94EA0283EC99E00197F1F777
:1001F00000C0000040E062E080E00E94EA0289EF77
:1002000090E00197F1F700C0000040E060E080E07E
:100210000E94EA0240E061E080E00E94EA0240E0E1
:1002200062E080E00E94EA0240E067E081E00E9434
:10023000EA0240E066E081E00E94EA0240E065E018
:1002400081E00E94EA0240E064E081E00E94EA026C
:1002500041E063E081E00E94EA0241E062E081E087
:100260000E94EA0241E061E081E00E94EA0241E08E
:1002700060E081E00E94EA0241E062E080E00E94EA
:10028000EA0283EC99E00197F1F700C0000040E03A
:1002900062E080E00E94EA0289EF90E00197F1F7C6
:1002A00000C0000040E060E080E00E94EA0240E020
:1002B00061E080E00E94EA0240E062E080E00E94AB
:1002C000EA0240E067E081E00E94EA0240E066E086
:1002D00081E00E94EA0240E065E081E00E94EA02DB
:1002E00040E064E081E00E94EA0240E063E081E0F7
:1002F0000E94EA0240E062E081E00E94EA0240E0FF
:1003000061E081E00E94EA0241E060E081E00E9459
:10031000EA0241E062E080E00E94EA0283EC99E0B8
:100320000197F1F700C0000040E062E080E00E9429
:10033000EA0283EF91E00197F1F700C0000040E08E
:1003400060E080E00E94EA0240E061E080E00E941C
:10035000EA0240E062E080E00E94EA0240E067E0FA
:1003600081E00E94EA0240E066E081E00E94EA0249
:1003700040E065E081E00E94EA0240E064E081E064
:100380000E94EA0240E063E081E00E94EA0241E06C
:1003900062E081E00E94EA0240E061E081E00E94C8
:1003A000EA0240E060E081E00E94EA0241E062E0AF
:1003B00080E00E94EA0283EC99E00197F1F700C027
:1003C000000040E062E080E00E94EA0240E060E07D
:1003D00080E00E94EA0240E061E080E00E94EA02E0
:1003E00040E062E080E00E94EA0241E067E081E0F4
:1003F0000E94EA0240E066E081E00E94EA0240E0FA
:1004000065E081E00E94EA0240E064E081E00E9451
:10041000EA0241E063E081E00E94EA0241E062E03A
:1004200081E00E94EA0241E061E081E00E94EA028C
:1004300041E060E081E00E94EA0241E062E080E0A9
:100440000E94EA0283EC99E00197F1F700C00000F6
:1004500040E062E080E00E94EA0280E00895CF93ED
:10046000C82F41E060E080E00E94EA0241E060E0E5
:1004700080E00E94EA0240E061E080E00E94EA023F
:1004800040E062E080E00E94EA024C2F441F4427D3
:10049000441F67E081E00E94EA02C6FB442740F95E
:1004A00066E081E00E94EA02C5FB442740F965E06E
:1004B00081E00E94EA02C4FB442740F964E081E045
:1004C0000E94EA02C3FB442740F963E081E00E94F6
:1004D000EA02C2FB442740F962E081E00E94EA029E
:1004E000C1FB442740F961E081E00E94EA024C2F01
:1004F000417060E081E00E94EA0241E062E080E059
:100500000E94EA0283EC99E00197F1F700C0000035
:1005100040E062E080E00E94EA02809180008F5F0C
:1005200080938000803109F047C040E060E080E0C7
:100530000E94EA0240E061E080E00E94EA0240E0BE
:1005400062E080E00E94EA0241E067E081E00E9410
:10055000EA0241E066E081E00E94EA0240E065E0F4
:1005600081E00E94EA0240E064E081E00E94EA0249
:1005700041E063E081E00E94EA0241E062E081E064
:100580000E94EA0241E061E081E00E94EA0241E06B
:1005900060E081E00E94EA0241E062E080E00E94C7
:1005A000EA0283EC99E00197F1F700C0000040E017
:1005B00062E080E00E94EA0280E0CF9108950E940C
:1005C000B0030E94B2000E9449008F3FE1F30E94F5
:1005D0002F02F9CF683008F078C041113CC081305B
:1005E00099F028F08230E9F0833041F170C02BB3EC
:1005F00081E090E002C0880F991F6A95E2F780952C
:1006000082238BBB80E0089528B381E090E002C094
:10061000880F991F6A95E2F78095822388BB80E056
:10062000089525B381E090E002C0880F991F6A9574
:10063000E2F78095822385BB80E0089522B381E0B4
:1006400090E002C0880F991F6A95E2F78095822397
:1006500082BB80E008954130E1F5813091F028F0CF
:100660008230D9F0833029F136C02BB381E090E09D
:1006700002C0880F991F6A95E2F7822B8BBB80E03E
:10068000089528B381E090E002C0880F991F6A9511
:10069000E2F7822B88BB80E0089525B381E090E0EB
:1006A00002C0880F991F6A95E2F7822B85BB80E014
:1006B000089522B381E090E002C0880F991F6A95E7
:1006C000E2F7822B82BB80E0089583E0089583E007
:1006D000089581E0089583E0089541155105D1F111
:1006E0006830D0F5813091F028F08230D9F0833035
:1006F00029F134C089B390E002C0959587956A9539
:10070000E2F78170FA01808380E0089586B390E07B
:1007100002C0959587956A95E2F78170FA0180830A
:1007200080E0089583B390E002C0959587956A951F
:10073000E2F78170FA01808380E0089580B390E051
:1007400002C0959587956A95E2F78170FA018083DA
:1007500080E0089582E0089580E0089583E00895A0
:100760009FEF9ABB97BB80EF84BB81E081BB8BBBC3
:0E07700018BA95BB82BB80E00895F894FFCFC5
:10077E003738392F3435362A3132332D63303D2B0D
:10078E00020202020001020302020202040506072F
:00000001FF
